{
  "contractName": "Channel8",
  "abi": [
    {
      "constant": true,
      "inputs": [],
      "name": "owner",
      "outputs": [
        {
          "name": "",
          "type": "address"
        }
      ],
      "payable": false,
      "stateMutability": "view",
      "type": "function"
    },
    {
      "inputs": [],
      "payable": false,
      "stateMutability": "nonpayable",
      "type": "constructor"
    },
    {
      "anonymous": false,
      "inputs": [
        {
          "indexed": false,
          "name": "A",
          "type": "uint256"
        },
        {
          "indexed": false,
          "name": "B",
          "type": "uint256"
        },
        {
          "indexed": false,
          "name": "round",
          "type": "uint256"
        },
        {
          "indexed": false,
          "name": "random",
          "type": "uint256"
        },
        {
          "indexed": false,
          "name": "cid",
          "type": "address"
        }
      ],
      "name": "Closure",
      "type": "event"
    },
    {
      "constant": false,
      "inputs": [
        {
          "name": "party",
          "type": "address"
        },
        {
          "name": "_towerIden",
          "type": "address"
        },
        {
          "name": "_tower",
          "type": "address"
        },
        {
          "name": "_t",
          "type": "address"
        }
      ],
      "name": "setUp",
      "outputs": [],
      "payable": true,
      "stateMutability": "payable",
      "type": "function"
    },
    {
      "constant": false,
      "inputs": [],
      "name": "getInfor",
      "outputs": [
        {
          "name": "",
          "type": "uint256"
        }
      ],
      "payable": false,
      "stateMutability": "nonpayable",
      "type": "function"
    },
    {
      "constant": false,
      "inputs": [
        {
          "name": "A",
          "type": "uint256"
        },
        {
          "name": "B",
          "type": "uint256"
        },
        {
          "name": "round",
          "type": "uint256"
        },
        {
          "name": "random",
          "type": "uint256"
        },
        {
          "name": "_v",
          "type": "bytes1"
        },
        {
          "name": "_r",
          "type": "bytes32"
        },
        {
          "name": "_s",
          "type": "bytes32"
        }
      ],
      "name": "terminate",
      "outputs": [],
      "payable": false,
      "stateMutability": "nonpayable",
      "type": "function"
    },
    {
      "constant": false,
      "inputs": [
        {
          "name": "Hvalue",
          "type": "bytes32"
        },
        {
          "name": "round",
          "type": "uint256"
        },
        {
          "name": "_v",
          "type": "bytes1"
        },
        {
          "name": "_r",
          "type": "bytes32"
        },
        {
          "name": "_s",
          "type": "bytes32"
        }
      ],
      "name": "challenge",
      "outputs": [],
      "payable": false,
      "stateMutability": "nonpayable",
      "type": "function"
    },
    {
      "constant": false,
      "inputs": [
        {
          "name": "A",
          "type": "uint256"
        },
        {
          "name": "B",
          "type": "uint256"
        },
        {
          "name": "round",
          "type": "uint256"
        },
        {
          "name": "random",
          "type": "uint256"
        },
        {
          "name": "_v",
          "type": "bytes1"
        },
        {
          "name": "_r",
          "type": "bytes32"
        },
        {
          "name": "_s",
          "type": "bytes32"
        }
      ],
      "name": "dispute",
      "outputs": [],
      "payable": false,
      "stateMutability": "nonpayable",
      "type": "function"
    },
    {
      "constant": false,
      "inputs": [
        {
          "name": "A",
          "type": "uint256"
        },
        {
          "name": "B",
          "type": "uint256"
        },
        {
          "name": "round",
          "type": "uint256"
        },
        {
          "name": "isPay",
          "type": "uint256"
        }
      ],
      "name": "payout",
      "outputs": [],
      "payable": true,
      "stateMutability": "payable",
      "type": "function"
    }
  ],
  "bytecode": "0x60806040526000600a556000600b60006101000a81548160ff021916908360ff1602179055506000600c556000600d556000600e556078600f556203f4806010556000601260146101000a81548160ff02191690831515021790555034801561006757600080fd5b5033600560006101000a81548173ffffffffffffffffffffffffffffffffffffffff021916908373ffffffffffffffffffffffffffffffffffffffff160217905550611dcd806100b86000396000f300608060405260043610610083576000357c0100000000000000000000000000000000000000000000000000000000900463ffffffff16806355624fa514610088578063623e1102146100a457806380ffde32146100cd5780638da5cb5b146100e9578063a41b144e14610114578063a6fb74511461013d578063f2b677fe14610166575b600080fd5b6100a2600480360361009d9190810190611894565b610191565b005b3480156100b057600080fd5b506100cb60048036036100c691908101906117f4565b61050d565b005b6100e760048036036100e29190810190611791565b610a40565b005b3480156100f557600080fd5b506100fe610c52565b60405161010b9190611ab7565b60405180910390f35b34801561012057600080fd5b5061013b600480360361013691908101906118f7565b610c78565b005b34801561014957600080fd5b50610164600480360361015f91908101906118f7565b61123d565b005b34801561017257600080fd5b5061017b6116e6565b6040516101889190611c04565b60405180910390f35b6008601381905550601260009054906101000a900473ffffffffffffffffffffffffffffffffffffffff1673ffffffffffffffffffffffffffffffffffffffff163273ffffffffffffffffffffffffffffffffffffffff16141561032d576001600d819055506003600b60009054906101000a900460ff1660ff1614151561021557fe5b600c54821015151561022357fe5b6001811480156102345750600e5442105b15610328576009600080815260200190815260200160002060009054906101000a900473ffffffffffffffffffffffffffffffffffffffff1673ffffffffffffffffffffffffffffffffffffffff166108fc859081150290604051600060405180830381858888f1935050505050600960006001815260200190815260200160002060009054906101000a900473ffffffffffffffffffffffffffffffffffffffff1673ffffffffffffffffffffffffffffffffffffffff166108fc849081150290604051600060405180830381858888f19350505050506001601260146101000a81548160ff0219169083151502179055505b610507565b6009600080815260200190815260200160002060009054906101000a900473ffffffffffffffffffffffffffffffffffffffff1673ffffffffffffffffffffffffffffffffffffffff163373ffffffffffffffffffffffffffffffffffffffff1614806103f95750600960006001815260200190815260200160002060009054906101000a900473ffffffffffffffffffffffffffffffffffffffff1673ffffffffffffffffffffffffffffffffffffffff163373ffffffffffffffffffffffffffffffffffffffff16145b15610501576000600d54141561041c57601054600e600082825401925050819055505b600e544211151561042957fe5b6009600080815260200190815260200160002060009054906101000a900473ffffffffffffffffffffffffffffffffffffffff1673ffffffffffffffffffffffffffffffffffffffff166108fc859081150290604051600060405180830381858888f1935050505050600960006001815260200190815260200160002060009054906101000a900473ffffffffffffffffffffffffffffffffffffffff1673ffffffffffffffffffffffffffffffffffffffff166108fc849081150290604051600060405180830381858888f1935050505050610506565b600080fd5b5b50505050565b600060a06040519081016040529081600082018054600181600116156101000203166002900480601f0160208091040260200160405190810160405280929190818152602001828054600181600116156101000203166002900480156105b45780601f10610589576101008083540402835291602001916105b4565b820191906000526020600020905b81548152906001019060200180831161059757829003601f168201915b50505050508152602001600182018054600181600116156101000203166002900480601f0160208091040260200160405190810160405280929190818152602001828054600181600116156101000203166002900480156106565780601f1061062b57610100808354040283529160200191610656565b820191906000526020600020905b81548152906001019060200180831161063957829003601f168201915b50505050508152602001600282018054600181600116156101000203166002900480601f0160208091040260200160405190810160405280929190818152602001828054600181600116156101000203166002900480156106f85780601f106106cd576101008083540402835291602001916106f8565b820191906000526020600020905b8154815290600101906020018083116106db57829003601f168201915b50505050508152602001600382018054600181600116156101000203166002900480601f01602080910402602001604051908101604052809291908181526020018280546001816001161561010002031660029004801561079a5780601f1061076f5761010080835404028352916020019161079a565b820191906000526020600020905b81548152906001019060200180831161077d57829003601f168201915b50505050508152602001600482018054600181600116156101000203166002900480601f01602080910402602001604051908101604052809291908181526020018280546001816001161561010002031660029004801561083c5780601f106108115761010080835404028352916020019161083c565b820191906000526020600020905b81548152906001019060200180831161081f57829003601f168201915b50505050508152505073__verify________________________________6371bdb883909187878787876040518763ffffffff167c01000000000000000000000000000000000000000000000000000000000281526004016108a396959493929190611b17565b60206040518083038186803b1580156108bb57600080fd5b505af41580156108cf573d6000803e3d6000fd5b505050506040513d601f19601f820116820180604052506108f39190810190611768565b73ffffffffffffffffffffffffffffffffffffffff16601160009054906101000a900473ffffffffffffffffffffffffffffffffffffffff1673ffffffffffffffffffffffffffffffffffffffff1614151561094b57fe5b60011515601260149054906101000a900460ff1615151480156109705750600c548410155b8061098a57506000600d541480156109895750600e5442115b5b15610a3957600660009054906101000a900473ffffffffffffffffffffffffffffffffffffffff1673ffffffffffffffffffffffffffffffffffffffff166351cff8d9336040518263ffffffff167c0100000000000000000000000000000000000000000000000000000000028152600401610a069190611ab7565b600060405180830381600087803b158015610a2057600080fd5b505af1158015610a34573d6000803e3d6000fd5b505050505b5050505050565b83600860003373ffffffffffffffffffffffffffffffffffffffff1673ffffffffffffffffffffffffffffffffffffffff16815260200190815260200160002060006101000a81548173ffffffffffffffffffffffffffffffffffffffff021916908373ffffffffffffffffffffffffffffffffffffffff16021790555034600760008673ffffffffffffffffffffffffffffffffffffffff1673ffffffffffffffffffffffffffffffffffffffff1681526020019081526020016000206000828254019250508190555082601160006101000a81548173ffffffffffffffffffffffffffffffffffffffff021916908373ffffffffffffffffffffffffffffffffffffffff16021790555081600660006101000a81548173ffffffffffffffffffffffffffffffffffffffff021916908373ffffffffffffffffffffffffffffffffffffffff1602179055503360096000600a600081548092919060010191905055815260200190815260200160002060006101000a81548173ffffffffffffffffffffffffffffffffffffffff021916908373ffffffffffffffffffffffffffffffffffffffff1602179055506001600b60006101000a81548160ff021916908360ff16021790555080601260006101000a81548173ffffffffffffffffffffffffffffffffffffffff021916908373ffffffffffffffffffffffffffffffffffffffff16021790555050505050565b600560009054906101000a900473ffffffffffffffffffffffffffffffffffffffff1681565b600060a06040519081016040529081600082018054600181600116156101000203166002900480601f016020809104026020016040519081016040528092919081815260200182805460018160011615610100020316600290048015610d1f5780601f10610cf457610100808354040283529160200191610d1f565b820191906000526020600020905b815481529060010190602001808311610d0257829003601f168201915b50505050508152602001600182018054600181600116156101000203166002900480601f016020809104026020016040519081016040528092919081815260200182805460018160011615610100020316600290048015610dc15780601f10610d9657610100808354040283529160200191610dc1565b820191906000526020600020905b815481529060010190602001808311610da457829003601f168201915b50505050508152602001600282018054600181600116156101000203166002900480601f016020809104026020016040519081016040528092919081815260200182805460018160011615610100020316600290048015610e635780601f10610e3857610100808354040283529160200191610e63565b820191906000526020600020905b815481529060010190602001808311610e4657829003601f168201915b50505050508152602001600382018054600181600116156101000203166002900480601f016020809104026020016040519081016040528092919081815260200182805460018160011615610100020316600290048015610f055780601f10610eda57610100808354040283529160200191610f05565b820191906000526020600020905b815481529060010190602001808311610ee857829003601f168201915b50505050508152602001600482018054600181600116156101000203166002900480601f016020809104026020016040519081016040528092919081815260200182805460018160011615610100020316600290048015610fa75780601f10610f7c57610100808354040283529160200191610fa7565b820191906000526020600020905b815481529060010190602001808311610f8a57829003601f168201915b50505050508152505073__verify________________________________63b1036e9b9091898989898989896040518963ffffffff167c0100000000000000000000000000000000000000000000000000000000028152600401611012989796959493929190611b7f565b60206040518083038186803b15801561102a57600080fd5b505af415801561103e573d6000803e3d6000fd5b505050506040513d601f19601f820116820180604052506110629190810190611768565b73ffffffffffffffffffffffffffffffffffffffff16600860003373ffffffffffffffffffffffffffffffffffffffff1673ffffffffffffffffffffffffffffffffffffffff16815260200190815260200160002060009054906101000a900473ffffffffffffffffffffffffffffffffffffffff1673ffffffffffffffffffffffffffffffffffffffff161415156110f757fe5b7f67d4ed798cf92325e224f1ae45454932500d86b72c0e436e671b05924d643a69878787873060405161112e959493929190611c1f565b60405180910390a184600c819055506003600b60006101000a81548160ff021916908360ff160217905550600f544201600e81905550600660009054906101000a900473ffffffffffffffffffffffffffffffffffffffff1673ffffffffffffffffffffffffffffffffffffffff16633a0744b5308989896040518563ffffffff167c01000000000000000000000000000000000000000000000000000000000281526004016111e19493929190611ad2565b602060405180830381600087803b1580156111fb57600080fd5b505af115801561120f573d6000803e3d6000fd5b505050506040513d601f19601f82011682018060405250611233919081019061186b565b5050505050505050565b601054600e5401421115151561124f57fe5b600060a06040519081016040529081600082018054600181600116156101000203166002900480601f0160208091040260200160405190810160405280929190818152602001828054600181600116156101000203166002900480156112f65780601f106112cb576101008083540402835291602001916112f6565b820191906000526020600020905b8154815290600101906020018083116112d957829003601f168201915b50505050508152602001600182018054600181600116156101000203166002900480601f0160208091040260200160405190810160405280929190818152602001828054600181600116156101000203166002900480156113985780601f1061136d57610100808354040283529160200191611398565b820191906000526020600020905b81548152906001019060200180831161137b57829003601f168201915b50505050508152602001600282018054600181600116156101000203166002900480601f01602080910402602001604051908101604052809291908181526020018280546001816001161561010002031660029004801561143a5780601f1061140f5761010080835404028352916020019161143a565b820191906000526020600020905b81548152906001019060200180831161141d57829003601f168201915b50505050508152602001600382018054600181600116156101000203166002900480601f0160208091040260200160405190810160405280929190818152602001828054600181600116156101000203166002900480156114dc5780601f106114b1576101008083540402835291602001916114dc565b820191906000526020600020905b8154815290600101906020018083116114bf57829003601f168201915b50505050508152602001600482018054600181600116156101000203166002900480601f01602080910402602001604051908101604052809291908181526020018280546001816001161561010002031660029004801561157e5780601f106115535761010080835404028352916020019161157e565b820191906000526020600020905b81548152906001019060200180831161156157829003601f168201915b50505050508152505073__verify________________________________63b1036e9b9091898989898989896040518963ffffffff167c01000000000000000000000000000000000000000000000000000000000281526004016115e9989796959493929190611b7f565b60206040518083038186803b15801561160157600080fd5b505af4158015611615573d6000803e3d6000fd5b505050506040513d601f19601f820116820180604052506116399190810190611768565b73ffffffffffffffffffffffffffffffffffffffff16600860003373ffffffffffffffffffffffffffffffffffffffff1673ffffffffffffffffffffffffffffffffffffffff16815260200190815260200160002060009054906101000a900473ffffffffffffffffffffffffffffffffffffffff1673ffffffffffffffffffffffffffffffffffffffff161415156116ce57fe5b6116dd87878787878787610c78565b50505050505050565b6000601354905090565b60006116fc8235611cdd565b905092915050565b60006117108251611cdd565b905092915050565b60006117248235611cfd565b905092915050565b60006117388235611d29565b905092915050565b600061174c8235611d33565b905092915050565b60006117608251611d33565b905092915050565b60006020828403121561177a57600080fd5b600061178884828501611704565b91505092915050565b600080600080608085870312156117a757600080fd5b60006117b5878288016116f0565b94505060206117c6878288016116f0565b93505060406117d7878288016116f0565b92505060606117e8878288016116f0565b91505092959194509250565b600080600080600060a0868803121561180c57600080fd5b600061181a8882890161172c565b955050602061182b88828901611740565b945050604061183c88828901611718565b935050606061184d8882890161172c565b925050608061185e8882890161172c565b9150509295509295909350565b60006020828403121561187d57600080fd5b600061188b84828501611754565b91505092915050565b600080600080608085870312156118aa57600080fd5b60006118b887828801611740565b94505060206118c987828801611740565b93505060406118da87828801611740565b92505060606118eb87828801611740565b91505092959194509250565b600080600080600080600060e0888a03121561191257600080fd5b60006119208a828b01611740565b97505060206119318a828b01611740565b96505060406119428a828b01611740565b95505060606119538a828b01611740565b94505060806119648a828b01611718565b93505060a06119758a828b0161172c565b92505060c06119868a828b0161172c565b91505092959891949750929550565b61199e81611c7d565b82525050565b6119ad81611c9d565b82525050565b6119bc81611cc9565b82525050565b6119cb81611d3d565b82525050565b60006119dc82611c72565b8084526119f0816020860160208601611d4f565b6119f981611d82565b602085010191505092915050565b600060a0830160008301518482036000860152611a2482826119d1565b91505060208301518482036020860152611a3e82826119d1565b91505060408301518482036040860152611a5882826119d1565b91505060608301518482036060860152611a7282826119d1565b91505060808301518482036080860152611a8c82826119d1565b9150508091505092915050565b611aa281611cd3565b82525050565b611ab181611cd3565b82525050565b6000602082019050611acc6000830184611995565b92915050565b6000608082019050611ae760008301876119c2565b611af46020830186611a99565b611b016040830185611a99565b611b0e6060830184611a99565b95945050505050565b600060c0820190508181036000830152611b318189611a07565b9050611b4060208301886119b3565b611b4d6040830187611aa8565b611b5a60608301866119a4565b611b6760808301856119b3565b611b7460a08301846119b3565b979650505050505050565b6000610100820190508181036000830152611b9a818b611a07565b9050611ba9602083018a611aa8565b611bb66040830189611aa8565b611bc36060830188611aa8565b611bd06080830187611aa8565b611bdd60a08301866119a4565b611bea60c08301856119b3565b611bf760e08301846119b3565b9998505050505050505050565b6000602082019050611c196000830184611a99565b92915050565b600060a082019050611c346000830188611a99565b611c416020830187611a99565b611c4e6040830186611a99565b611c5b6060830185611a99565b611c6860808301846119c2565b9695505050505050565b600081519050919050565b600073ffffffffffffffffffffffffffffffffffffffff82169050919050565b60007fff0000000000000000000000000000000000000000000000000000000000000082169050919050565b6000819050919050565b6000819050919050565b600073ffffffffffffffffffffffffffffffffffffffff82169050919050565b60007fff0000000000000000000000000000000000000000000000000000000000000082169050919050565b6000819050919050565b6000819050919050565b6000611d4882611c7d565b9050919050565b60005b83811015611d6d578082015181840152602081019050611d52565b83811115611d7c576000848401525b50505050565b6000601f19601f83011690509190505600a265627a7a723058201a8864257cdc6387239fe25906bd3a4544c70cc438af8de443ccbffef35b66476c6578706572696d656e74616cf50037",
  "source": "pragma solidity >=0.4.21 <0.6.0;\nimport \"./Tower.sol\";\nimport \"./imported/verify.sol\";\npragma experimental \"ABIEncoderV2\";\ncontract Channel8 {\n\n    verify.Data data;\n    address public owner;\n    Tower tower;\n    mapping(address=>uint) balances;\n    mapping(address=>address) identity;\n    mapping(uint=>address) addr;\n    uint addrCounter = 0;\n    // 0-empty, 1-ok, 2-dispute, 3-close\n    uint8 flag = 0;\n    using verify for verify.Data;\n    uint latestRound = 0;\n    uint isRespond = 0;\n    uint ddlSettle = 0;\n    uint settlePeriod = 60 * 2;\n    uint payoutPeriod = 60 * 60 * 24 * 3;\n    // address watchtower;\n    address towerIden;\n    address watchtower;\n    bool isClose = false;\n\n    function Channel8() public {\n        owner = msg.sender;\n    }\n    function setUp(address party, address _towerIden, address _tower, address _t) payable{\n        identity[msg.sender] = party; \n        balances[party] += msg.value;\n        towerIden = _towerIden;\n        // watchtower = _tower;\n        tower = Tower(_tower);\n        addr[addrCounter++] = msg.sender;\n        flag = 1;\n        watchtower = _t;\n    }\n    uint test3;\n    function getInfor() public returns (uint){\n       return (test3);\n    }\n\n    event Closure(uint A, uint B, uint round, uint random, address cid);\n\n    function terminate(uint A, uint B, uint round, uint random, byte _v, bytes32 _r, bytes32 _s) {\n        assert(identity[msg.sender] == data.verifyidentity(A, B, round, random, _v,  _r, _s));\n        emit Closure(A, B, round, random, this);\n        latestRound = round;\n        flag = 3;\n        // test3 = 666;\n        ddlSettle = now + settlePeriod;\n        tower.close(this, A, B, round);\n    }\n\n    function challenge(bytes32 Hvalue, uint round, byte _v, bytes32 _r, bytes32 _s) {\n        assert(towerIden == data.verifytower(Hvalue, round, _v,  _r, _s));\n        // assert(round > latestRound);\n        if ((isClose == true && round >= latestRound) || isRespond == 0 && now > ddlSettle){\n            tower.withdraw(msg.sender);\n        }\n    }\n\n    function dispute(uint A, uint B, uint round, uint random, byte _v, bytes32 _r, bytes32 _s) {\n        assert(now <= ddlSettle + payoutPeriod);\n        assert(identity[msg.sender] == data.verifyidentity(A, B, round, random, _v,  _r, _s));\n        // assert(round > latestRound);\n        terminate(A, B, round, random,  _v, _r, _s);\n    }\n\n    function payout(uint A, uint B, uint round, uint isPay) public payable{  \n        test3 = 8;\n\n        if (tx.origin == watchtower){\n            isRespond = 1;\n            assert(flag == 3);\n            assert(round >= latestRound);\n            if (isPay == 1 && now < ddlSettle){\n                addr[0].send(A);\n                addr[1].send(B);\n                isClose = true;\n            }\n        }else if (msg.sender == addr[0] || msg.sender == addr[1]){\n            if (isRespond == 0){\n                ddlSettle += payoutPeriod;\n            }\n            assert(now > ddlSettle);\n            addr[0].send(A);\n            addr[1].send(B);\n        }else {\n            revert();\n        }   \n    }\n}\n",
  "sourcePath": "/Users/liubowen/sutd/payment_channel_termination/code/contracts/Channel8.sol",
  "compiler": {
    "name": "solc",
    "version": "0.4.25+commit.59dbf8f1.Emscripten.clang"
  },
  "schemaVersion": "2.0.2",
  "updatedAt": "2019-06-03T10:38:32.819Z"
}