{
  "contractName": "Channel",
  "abi": [
    {
      "constant": true,
      "inputs": [],
      "name": "owner",
      "outputs": [
        {
          "name": "",
          "type": "address"
        }
      ],
      "payable": false,
      "stateMutability": "view",
      "type": "function"
    },
    {
      "inputs": [],
      "payable": false,
      "stateMutability": "nonpayable",
      "type": "constructor"
    },
    {
      "anonymous": false,
      "inputs": [
        {
          "indexed": false,
          "name": "A",
          "type": "uint256"
        },
        {
          "indexed": false,
          "name": "B",
          "type": "uint256"
        },
        {
          "indexed": false,
          "name": "round",
          "type": "uint256"
        },
        {
          "indexed": false,
          "name": "random",
          "type": "uint256"
        },
        {
          "indexed": false,
          "name": "cid",
          "type": "address"
        }
      ],
      "name": "Closure",
      "type": "event"
    },
    {
      "constant": false,
      "inputs": [
        {
          "name": "party",
          "type": "address"
        },
        {
          "name": "_towerIden",
          "type": "address"
        },
        {
          "name": "_tower",
          "type": "address"
        }
      ],
      "name": "setUp",
      "outputs": [],
      "payable": true,
      "stateMutability": "payable",
      "type": "function"
    },
    {
      "constant": false,
      "inputs": [
        {
          "name": "party",
          "type": "address"
        }
      ],
      "name": "deposit",
      "outputs": [],
      "payable": true,
      "stateMutability": "payable",
      "type": "function"
    },
    {
      "constant": false,
      "inputs": [],
      "name": "getInfor",
      "outputs": [
        {
          "name": "",
          "type": "uint256"
        },
        {
          "name": "",
          "type": "uint256"
        }
      ],
      "payable": false,
      "stateMutability": "nonpayable",
      "type": "function"
    },
    {
      "constant": false,
      "inputs": [
        {
          "name": "A",
          "type": "uint256"
        },
        {
          "name": "B",
          "type": "uint256"
        },
        {
          "name": "round",
          "type": "uint256"
        },
        {
          "name": "random",
          "type": "uint256"
        },
        {
          "name": "_v",
          "type": "bytes1[]"
        },
        {
          "name": "_r",
          "type": "bytes32[]"
        },
        {
          "name": "_s",
          "type": "bytes32[]"
        }
      ],
      "name": "terminate",
      "outputs": [],
      "payable": false,
      "stateMutability": "nonpayable",
      "type": "function"
    },
    {
      "constant": false,
      "inputs": [
        {
          "name": "A",
          "type": "uint256"
        },
        {
          "name": "B",
          "type": "uint256"
        },
        {
          "name": "round",
          "type": "uint256"
        },
        {
          "name": "random",
          "type": "uint256"
        },
        {
          "name": "_v",
          "type": "bytes1[]"
        },
        {
          "name": "_r",
          "type": "bytes32[]"
        },
        {
          "name": "_s",
          "type": "bytes32[]"
        }
      ],
      "name": "dispute",
      "outputs": [],
      "payable": false,
      "stateMutability": "nonpayable",
      "type": "function"
    },
    {
      "constant": false,
      "inputs": [
        {
          "name": "A",
          "type": "uint256"
        },
        {
          "name": "B",
          "type": "uint256"
        },
        {
          "name": "round",
          "type": "uint256"
        },
        {
          "name": "isPay",
          "type": "uint256"
        }
      ],
      "name": "payout",
      "outputs": [],
      "payable": true,
      "stateMutability": "payable",
      "type": "function"
    },
    {
      "constant": false,
      "inputs": [
        {
          "name": "Hvalue",
          "type": "bytes32"
        },
        {
          "name": "round",
          "type": "uint256"
        },
        {
          "name": "_v",
          "type": "bytes1"
        },
        {
          "name": "_r",
          "type": "bytes32"
        },
        {
          "name": "_s",
          "type": "bytes32"
        }
      ],
      "name": "challenge",
      "outputs": [],
      "payable": false,
      "stateMutability": "nonpayable",
      "type": "function"
    }
  ],
  "bytecode": "0x60806040526000600a556000600b60006101000a81548160ff021916908360ff1602179055506000600c556000600d556000600e556000600f55610e106010556203f4806011556000601360146101000a81548160ff0219169083151502179055506000601360156101000a81548160ff0219169083151502179055506000601360166101000a81548160ff02191690831515021790555060006014553480156100a857600080fd5b5033600560006101000a81548173ffffffffffffffffffffffffffffffffffffffff021916908373ffffffffffffffffffffffffffffffffffffffff160217905550611cdb806100f96000396000f30060806040526004361061008e576000357c0100000000000000000000000000000000000000000000000000000000900463ffffffff1680631c0a96261461009357806355624fa5146100bc578063623e1102146100d85780636812b16c146101015780638da5cb5b1461011d578063a516206214610148578063f2b677fe14610171578063f340fa011461019d575b600080fd5b34801561009f57600080fd5b506100ba60048036036100b5919081019061179a565b6101b9565b005b6100d660048036036100d19190810190611737565b610350565b005b3480156100e457600080fd5b506100ff60048036036100fa9190810190611697565b610923565b005b61011b60048036036101169190810190611648565b610a31565b005b34801561012957600080fd5b50610132610c60565b60405161013f91906119a2565b60405180910390f35b34801561015457600080fd5b5061016f600480360361016a919081019061179a565b610c86565b005b34801561017d57600080fd5b50610186611315565b604051610194929190611a87565b60405180910390f35b6101b760048036036101b291908101906115f6565b611326565b005b6003600b60009054906101000a900460ff1660ff161415156101d757fe5b601154600f540142111515156101e957fe5b600e548511156103475784600e8190555086600c8190555085600d819055506010544201600f819055506000601360156101000a81548160ff021916908315150217905550600660009054906101000a900473ffffffffffffffffffffffffffffffffffffffff1673ffffffffffffffffffffffffffffffffffffffff16633a0744b5308989896040518563ffffffff167c01000000000000000000000000000000000000000000000000000000000281526004016102ab94939291906119bd565b602060405180830381600087803b1580156102c557600080fd5b505af11580156102d9573d6000803e3d6000fd5b505050506040513d601f19601f820116820180604052506102fd919081019061170e565b507f67d4ed798cf92325e224f1ae45454932500d86b72c0e436e671b05924d643a698787878730604051610335959493929190611ab0565b60405180910390a16103096017819055505b50505050505050565b6003600b60009054906101000a900460ff1660ff1614151561036e57fe5b8284016007600060086000600960006001815260200190815260200160002060009054906101000a900473ffffffffffffffffffffffffffffffffffffffff1673ffffffffffffffffffffffffffffffffffffffff1673ffffffffffffffffffffffffffffffffffffffff16815260200190815260200160002060009054906101000a900473ffffffffffffffffffffffffffffffffffffffff1673ffffffffffffffffffffffffffffffffffffffff1673ffffffffffffffffffffffffffffffffffffffff1681526020019081526020016000205460076000600860006009600080815260200190815260200160002060009054906101000a900473ffffffffffffffffffffffffffffffffffffffff1673ffffffffffffffffffffffffffffffffffffffff1673ffffffffffffffffffffffffffffffffffffffff16815260200190815260200160002060009054906101000a900473ffffffffffffffffffffffffffffffffffffffff1673ffffffffffffffffffffffffffffffffffffffff1673ffffffffffffffffffffffffffffffffffffffff16815260200190815260200160002054011015151561052157fe5b601360009054906101000a900473ffffffffffffffffffffffffffffffffffffffff1673ffffffffffffffffffffffffffffffffffffffff163373ffffffffffffffffffffffffffffffffffffffff1614156106cc576001601360156101000a81548160ff021916908315150217905550600e548214151561059f57fe5b6001811480156105b05750600f5442105b156106b9576009600080815260200190815260200160002060009054906101000a900473ffffffffffffffffffffffffffffffffffffffff1673ffffffffffffffffffffffffffffffffffffffff166108fc859081150290604051600060405180830381858888f1935050505050600960006001815260200190815260200160002060009054906101000a900473ffffffffffffffffffffffffffffffffffffffff1673ffffffffffffffffffffffffffffffffffffffff166108fc849081150290604051600060405180830381858888f19350505050506000600b60006101000a81548160ff021916908360ff1602179055506000600e8190555060de6016819055506106c7565b601154600f54016014819055505b61091d565b6009600080815260200190815260200160002060009054906101000a900473ffffffffffffffffffffffffffffffffffffffff1673ffffffffffffffffffffffffffffffffffffffff163373ffffffffffffffffffffffffffffffffffffffff1614806107985750600960006001815260200190815260200160002060009054906101000a900473ffffffffffffffffffffffffffffffffffffffff1673ffffffffffffffffffffffffffffffffffffffff163373ffffffffffffffffffffffffffffffffffffffff16145b156109175760001515601360159054906101000a900460ff1615151480156107d3575060001515601360169054906101000a900460ff161515145b1561080157601154600f54016014819055506001601360166101000a81548160ff0219169083151502179055505b6014544211151561080e57fe5b600e548214151561081b57fe5b6009600080815260200190815260200160002060009054906101000a900473ffffffffffffffffffffffffffffffffffffffff1673ffffffffffffffffffffffffffffffffffffffff166108fc859081150290604051600060405180830381858888f1935050505050600960006001815260200190815260200160002060009054906101000a900473ffffffffffffffffffffffffffffffffffffffff1673ffffffffffffffffffffffffffffffffffffffff166108fc849081150290604051600060405180830381858888f19350505050506000600b60006101000a81548160ff021916908360ff1602179055506000600e8190555061091c565b600080fd5b5b50505050565b6000600b60009054906101000a900460ff1660ff161480156109475750600e548410155b80610972575060001515601360159054906101000a900460ff1615151480156109715750600f5442115b5b15610a2a57600660009054906101000a900473ffffffffffffffffffffffffffffffffffffffff1673ffffffffffffffffffffffffffffffffffffffff166351cff8d9336040518263ffffffff167c01000000000000000000000000000000000000000000000000000000000281526004016109ee91906119a2565b600060405180830381600087803b158015610a0857600080fd5b505af1158015610a1c573d6000803e3d6000fd5b505050506103786017819055505b5050505050565b6000600b60009054906101000a900460ff1660ff16141515610a4f57fe5b82600860003373ffffffffffffffffffffffffffffffffffffffff1673ffffffffffffffffffffffffffffffffffffffff16815260200190815260200160002060006101000a81548173ffffffffffffffffffffffffffffffffffffffff021916908373ffffffffffffffffffffffffffffffffffffffff16021790555034600760008573ffffffffffffffffffffffffffffffffffffffff1673ffffffffffffffffffffffffffffffffffffffff1681526020019081526020016000206000828254019250508190555081601260006101000a81548173ffffffffffffffffffffffffffffffffffffffff021916908373ffffffffffffffffffffffffffffffffffffffff16021790555080601360006101000a81548173ffffffffffffffffffffffffffffffffffffffff021916908373ffffffffffffffffffffffffffffffffffffffff16021790555080600660006101000a81548173ffffffffffffffffffffffffffffffffffffffff021916908373ffffffffffffffffffffffffffffffffffffffff1602179055503360096000600a600081548092919060010191905055815260200190815260200160002060006101000a81548173ffffffffffffffffffffffffffffffffffffffff021916908373ffffffffffffffffffffffffffffffffffffffff1602179055506001600b60006101000a81548160ff021916908360ff160217905550505050565b600560009054906101000a900473ffffffffffffffffffffffffffffffffffffffff1681565b6001600b60009054906101000a900460ff1660ff16141515610ca457fe5b600060a06040519081016040529081600082018054600181600116156101000203166002900480601f016020809104026020016040519081016040528092919081815260200182805460018160011615610100020316600290048015610d4b5780601f10610d2057610100808354040283529160200191610d4b565b820191906000526020600020905b815481529060010190602001808311610d2e57829003601f168201915b50505050508152602001600182018054600181600116156101000203166002900480601f016020809104026020016040519081016040528092919081815260200182805460018160011615610100020316600290048015610ded5780601f10610dc257610100808354040283529160200191610ded565b820191906000526020600020905b815481529060010190602001808311610dd057829003601f168201915b50505050508152602001600282018054600181600116156101000203166002900480601f016020809104026020016040519081016040528092919081815260200182805460018160011615610100020316600290048015610e8f5780601f10610e6457610100808354040283529160200191610e8f565b820191906000526020600020905b815481529060010190602001808311610e7257829003601f168201915b50505050508152602001600382018054600181600116156101000203166002900480601f016020809104026020016040519081016040528092919081815260200182805460018160011615610100020316600290048015610f315780601f10610f0657610100808354040283529160200191610f31565b820191906000526020600020905b815481529060010190602001808311610f1457829003601f168201915b50505050508152602001600482018054600181600116156101000203166002900480601f016020809104026020016040519081016040528092919081815260200182805460018160011615610100020316600290048015610fd35780601f10610fa857610100808354040283529160200191610fd3565b820191906000526020600020905b815481529060010190602001808311610fb657829003601f168201915b50505050508152505073__verify________________________________63b1036e9b90918989898989600081518110151561100b57fe5b9060200190602002015189600081518110151561102457fe5b9060200190602002015189600081518110151561103d57fe5b906020019060200201516040518963ffffffff167c0100000000000000000000000000000000000000000000000000000000028152600401611086989796959493929190611a02565b60206040518083038186803b15801561109e57600080fd5b505af41580156110b2573d6000803e3d6000fd5b505050506040513d601f19601f820116820180604052506110d6919081019061161f565b73ffffffffffffffffffffffffffffffffffffffff16600860006009600080815260200190815260200160002060009054906101000a900473ffffffffffffffffffffffffffffffffffffffff1673ffffffffffffffffffffffffffffffffffffffff1673ffffffffffffffffffffffffffffffffffffffff16815260200190815260200160002060009054906101000a900473ffffffffffffffffffffffffffffffffffffffff1673ffffffffffffffffffffffffffffffffffffffff1614151561119e57fe5b6003600b60006101000a81548160ff021916908360ff16021790555084600e8190555086600c8190555085600d819055506010544201600f81905550600660009054906101000a900473ffffffffffffffffffffffffffffffffffffffff1673ffffffffffffffffffffffffffffffffffffffff16633a0744b5308989896040518563ffffffff167c010000000000000000000000000000000000000000000000000000000002815260040161125794939291906119bd565b602060405180830381600087803b15801561127157600080fd5b505af1158015611285573d6000803e3d6000fd5b505050506040513d601f19601f820116820180604052506112a9919081019061170e565b506000601360156101000a81548160ff0219169083151502179055507f67d4ed798cf92325e224f1ae45454932500d86b72c0e436e671b05924d643a6987878787306040516112fc959493929190611ab0565b60405180910390a1606f60158190555050505050505050565b600080601554601654915091509091565b6001600b60009054906101000a900460ff1660ff1614151561134457fe5b80600860003373ffffffffffffffffffffffffffffffffffffffff1673ffffffffffffffffffffffffffffffffffffffff16815260200190815260200160002060006101000a81548173ffffffffffffffffffffffffffffffffffffffff021916908373ffffffffffffffffffffffffffffffffffffffff16021790555034600760008373ffffffffffffffffffffffffffffffffffffffff1673ffffffffffffffffffffffffffffffffffffffff168152602001908152602001600020600082825401925050819055503360096000600a600081548092919060010191905055815260200190815260200160002060006101000a81548173ffffffffffffffffffffffffffffffffffffffff021916908373ffffffffffffffffffffffffffffffffffffffff16021790555050565b60006114808235611beb565b905092915050565b60006114948251611beb565b905092915050565b600082601f83011215156114af57600080fd5b81356114c26114bd82611b30565b611b03565b915081818352602084019350602081019050838560208402820111156114e757600080fd5b60005b8381101561151757816114fd88826115a6565b8452602084019350602083019250506001810190506114ea565b5050505092915050565b600082601f830112151561153457600080fd5b813561154761154282611b58565b611b03565b9150818183526020840193506020810190508385602084028201111561156c57600080fd5b60005b8381101561159c578161158288826115ba565b84526020840193506020830192505060018101905061156f565b5050505092915050565b60006115b28235611c0b565b905092915050565b60006115c68235611c37565b905092915050565b60006115da8235611c41565b905092915050565b60006115ee8251611c41565b905092915050565b60006020828403121561160857600080fd5b600061161684828501611474565b91505092915050565b60006020828403121561163157600080fd5b600061163f84828501611488565b91505092915050565b60008060006060848603121561165d57600080fd5b600061166b86828701611474565b935050602061167c86828701611474565b925050604061168d86828701611474565b9150509250925092565b600080600080600060a086880312156116af57600080fd5b60006116bd888289016115ba565b95505060206116ce888289016115ce565b94505060406116df888289016115a6565b93505060606116f0888289016115ba565b9250506080611701888289016115ba565b9150509295509295909350565b60006020828403121561172057600080fd5b600061172e848285016115e2565b91505092915050565b6000806000806080858703121561174d57600080fd5b600061175b878288016115ce565b945050602061176c878288016115ce565b935050604061177d878288016115ce565b925050606061178e878288016115ce565b91505092959194509250565b600080600080600080600060e0888a0312156117b557600080fd5b60006117c38a828b016115ce565b97505060206117d48a828b016115ce565b96505060406117e58a828b016115ce565b95505060606117f68a828b016115ce565b945050608088013567ffffffffffffffff81111561181357600080fd5b61181f8a828b0161149c565b93505060a088013567ffffffffffffffff81111561183c57600080fd5b6118488a828b01611521565b92505060c088013567ffffffffffffffff81111561186557600080fd5b6118718a828b01611521565b91505092959891949750929550565b61188981611b8b565b82525050565b61189881611bab565b82525050565b6118a781611bd7565b82525050565b6118b681611c4b565b82525050565b60006118c782611b80565b8084526118db816020860160208601611c5d565b6118e481611c90565b602085010191505092915050565b600060a083016000830151848203600086015261190f82826118bc565b9150506020830151848203602086015261192982826118bc565b9150506040830151848203604086015261194382826118bc565b9150506060830151848203606086015261195d82826118bc565b9150506080830151848203608086015261197782826118bc565b9150508091505092915050565b61198d81611be1565b82525050565b61199c81611be1565b82525050565b60006020820190506119b76000830184611880565b92915050565b60006080820190506119d260008301876118ad565b6119df6020830186611984565b6119ec6040830185611984565b6119f96060830184611984565b95945050505050565b6000610100820190508181036000830152611a1d818b6118f2565b9050611a2c602083018a611993565b611a396040830189611993565b611a466060830188611993565b611a536080830187611993565b611a6060a083018661188f565b611a6d60c083018561189e565b611a7a60e083018461189e565b9998505050505050505050565b6000604082019050611a9c6000830185611984565b611aa96020830184611984565b9392505050565b600060a082019050611ac56000830188611984565b611ad26020830187611984565b611adf6040830186611984565b611aec6060830185611984565b611af960808301846118ad565b9695505050505050565b6000604051905081810181811067ffffffffffffffff82111715611b2657600080fd5b8060405250919050565b600067ffffffffffffffff821115611b4757600080fd5b602082029050602081019050919050565b600067ffffffffffffffff821115611b6f57600080fd5b602082029050602081019050919050565b600081519050919050565b600073ffffffffffffffffffffffffffffffffffffffff82169050919050565b60007fff0000000000000000000000000000000000000000000000000000000000000082169050919050565b6000819050919050565b6000819050919050565b600073ffffffffffffffffffffffffffffffffffffffff82169050919050565b60007fff0000000000000000000000000000000000000000000000000000000000000082169050919050565b6000819050919050565b6000819050919050565b6000611c5682611b8b565b9050919050565b60005b83811015611c7b578082015181840152602081019050611c60565b83811115611c8a576000848401525b50505050565b6000601f19601f83011690509190505600a265627a7a7230582054882d7a65e290445d9181776029ee93cf84b02b568710ebf31a66f4c7c4fcf36c6578706572696d656e74616cf50037",
  "source": "pragma solidity >=0.4.21 <0.6.0;\nimport \"./Tower.sol\";\nimport \"./imported/verify.sol\";\n// import \"./imported/strings.sol\";\npragma experimental \"ABIEncoderV2\";\ncontract Channel {\n\n    verify.Data data;\n    using verify for verify.Data;\n    // using strings for *;\n    address public owner;\n    Tower tower;\n    mapping(address=>uint) balances;\n    mapping(address=>address) identity;\n    mapping(uint=>address) addr;\n    uint addrCounter = 0;\n    // 0-empty, 1-ok,  3-dispute\n    uint8 flag = 0;\n    uint latestA = 0;\n    uint latestB = 0;\n    uint latestRound = 0;\n    uint ddlSettle = 0;\n    uint settlePeriod = 60 * 60;\n    uint payoutPeriod = 60 * 60 * 24 * 3;\n    address towerIden;\n    address watchtower;\n    bool isClose = false;\n    bool isRespond = false;\n    bool isAdd = false;\n    uint tFinal = 0;\n\n    function Channel() public {\n        owner = msg.sender;\n    }\n    //publickeyA, publickeyTower, towerInstance.address\n    function setUp(address party, address _towerIden, address _tower) payable{\n        assert(flag == 0);\n        identity[msg.sender] = party; \n        balances[party] += msg.value;\n        towerIden = _towerIden;\n        watchtower = _tower;\n        tower = Tower(_tower);\n        addr[addrCounter++] = msg.sender;\n        flag = 1;\n    }\n\n    function deposit(address party) payable {\n        assert(flag == 1);\n        identity[msg.sender] = party; \n        balances[party] += msg.value;\n        addr[addrCounter++] = msg.sender;\n    }\n\n    uint test1;\n    uint test2;\n    uint test3;\n\n    function getInfor() public returns (uint, uint){\n       return (test1,test2);\n    }\n\n    event Closure(uint A, uint B, uint round, uint random, address cid);\n\n    function terminate(uint A, uint B, uint round, uint random, byte[] _v, bytes32[] _r, bytes32[] _s) {\n        assert(flag == 1);\n        // assert(identity[addr[1]] == data.verifyidentity(A, B, round, random, _v[1],  _r[1], _s[1]));\n        assert(identity[addr[0]] == data.verifyidentity(A, B, round, random, _v[0],  _r[0], _s[0]));\n        flag = 3;\n        latestRound = round;\n        latestA = A;\n        latestB = B;\n        ddlSettle = now + settlePeriod;\n        tower.close(this, A, B, round);\n        isRespond = false;\n        emit Closure(A, B, round, random, this);\n        test1 = 111;\n    }\n\n\n    function dispute(uint A, uint B, uint round, uint random, byte[] _v, bytes32[] _r, bytes32[] _s) {\n        assert(flag == 3);\n        assert(now <= ddlSettle + payoutPeriod);\n        // assert(round > latestRound);\n        // assert(identity[addr[1]] == data.verifyidentity(A, B, round, random, _v[1],  _r[1], _s[1]));\n        // assert(identity[addr[0]] == data.verifyidentity(A, B, round, random, _v[0],  _r[0], _s[0]));\n        if (round > latestRound){\n            latestRound = round;\n            latestA = A;\n            latestB = B;\n            ddlSettle = now + settlePeriod;\n            isRespond = false;\n            tower.close(this, A, B, round);\n            emit Closure(A, B, round, random, this);\n            test3 = 777;\n        }\n    }\n\n    function payout(uint A, uint B, uint round, uint isPay) public payable{  \n        assert(flag == 3);\n        assert(balances[identity[addr[0]]]+balances[identity[addr[1]]] >= A+B);\n        if (msg.sender == watchtower){\n            isRespond = true;\n            assert(round == latestRound);\n            if (isPay == 1 && now < ddlSettle){\n                addr[0].send(A);\n                addr[1].send(B);\n                flag = 0;\n                latestRound = 0;\n                test2 = 222;\n            }else {\n                tFinal = ddlSettle + payoutPeriod;\n            }\n        }else if (msg.sender == addr[0] || msg.sender == addr[1]){\n            if (isRespond == false && isAdd == false){\n                tFinal = ddlSettle + payoutPeriod;\n                isAdd = true;\n            }\n            assert(now > tFinal);\n            assert(round == latestRound);\n            addr[0].send(A);\n            addr[1].send(B);\n            flag = 0;\n            latestRound = 0;\n        }else {\n            revert();\n        }   \n    }\n\n    function challenge(bytes32 Hvalue, uint round, byte _v, bytes32 _r, bytes32 _s) {\n        // assert(towerIden == data.verifytower(Hvalue, round, _v,  _r, _s));\n        // assert(round > latestRound);\n        if ((flag == 0 && round >= latestRound) || isRespond == false && now > ddlSettle){\n            tower.withdraw(msg.sender);\n            test3 = 888;\n        }\n        \n    }\n}\n",
  "sourcePath": "/Users/liubowen/sutd/payment_channel_termination/code/contracts/Channel.sol",
  "compiler": {
    "name": "solc",
    "version": "0.4.25+commit.59dbf8f1.Emscripten.clang"
  },
  "schemaVersion": "2.0.2",
  "updatedAt": "2019-06-03T10:38:56.371Z"
}