{
  "contractName": "Short",
  "abi": [
    {
      "constant": true,
      "inputs": [],
      "name": "owner",
      "outputs": [
        {
          "name": "",
          "type": "address"
        }
      ],
      "payable": false,
      "stateMutability": "view",
      "type": "function"
    },
    {
      "inputs": [],
      "payable": false,
      "stateMutability": "nonpayable",
      "type": "constructor"
    },
    {
      "constant": false,
      "inputs": [
        {
          "name": "party",
          "type": "address"
        },
        {
          "name": "deposit",
          "type": "uint256"
        }
      ],
      "name": "setUp",
      "outputs": [],
      "payable": true,
      "stateMutability": "payable",
      "type": "function"
    },
    {
      "constant": false,
      "inputs": [],
      "name": "getInfor",
      "outputs": [
        {
          "name": "",
          "type": "uint256"
        },
        {
          "name": "",
          "type": "uint256"
        },
        {
          "name": "",
          "type": "uint256"
        },
        {
          "name": "",
          "type": "uint256"
        },
        {
          "name": "",
          "type": "address"
        }
      ],
      "payable": false,
      "stateMutability": "nonpayable",
      "type": "function"
    },
    {
      "constant": false,
      "inputs": [
        {
          "name": "A",
          "type": "uint256"
        },
        {
          "name": "B",
          "type": "uint256"
        },
        {
          "name": "round",
          "type": "uint256"
        },
        {
          "name": "blkhash",
          "type": "bytes32"
        },
        {
          "name": "_v",
          "type": "bytes1[]"
        },
        {
          "name": "_r",
          "type": "bytes32[]"
        },
        {
          "name": "_s",
          "type": "bytes32[]"
        }
      ],
      "name": "terminate",
      "outputs": [],
      "payable": false,
      "stateMutability": "nonpayable",
      "type": "function"
    },
    {
      "constant": false,
      "inputs": [
        {
          "name": "A",
          "type": "uint256"
        },
        {
          "name": "B",
          "type": "uint256"
        }
      ],
      "name": "payout",
      "outputs": [],
      "payable": true,
      "stateMutability": "payable",
      "type": "function"
    }
  ],
  "bytecode": "0x60806040526040805190810160405280600781526020017f4368616e6e6c65000000000000000000000000000000000000000000000000008152506006908051906020019061004f9291906100a8565b506000600a5534801561006157600080fd5b5033600560006101000a81548173ffffffffffffffffffffffffffffffffffffffff021916908373ffffffffffffffffffffffffffffffffffffffff16021790555061014d565b828054600181600116156101000203166002900490600052602060002090601f016020900481019282601f106100e957805160ff1916838001178555610117565b82800160010185558215610117579182015b828111156101165782518255916020019190600101906100fb565b5b5090506101249190610128565b5090565b61014a91905b8082111561014657600081600090555060010161012e565b5090565b90565b611085806200015d6000396000f30060806040526004361061006d576000357c0100000000000000000000000000000000000000000000000000000000900463ffffffff1680635aa6cf97146100725780638da5cb5b1461008e578063a910f259146100b9578063d17b12a6146100d5578063f2b677fe146100fe575b600080fd5b61008c60048036036100879190810190610b97565b61012d565b005b34801561009a57600080fd5b506100a3610204565b6040516100b09190610dcc565b60405180910390f35b6100d360048036036100ce9190810190610b5b565b61022a565b005b3480156100e157600080fd5b506100fc60048036036100f79190810190610bd3565b61035b565b005b34801561010a57600080fd5b5061011361097e565b604051610124959493929190610e6c565b60405180910390f35b6009600080815260200190815260200160002060009054906101000a900473ffffffffffffffffffffffffffffffffffffffff1673ffffffffffffffffffffffffffffffffffffffff166108fc839081150290604051600060405180830381858888f1935050505050600960006001815260200190815260200160002060009054906101000a900473ffffffffffffffffffffffffffffffffffffffff1673ffffffffffffffffffffffffffffffffffffffff166108fc829081150290604051600060405180830381858888f19350505050505050565b600560009054906101000a900473ffffffffffffffffffffffffffffffffffffffff1681565b81600860003373ffffffffffffffffffffffffffffffffffffffff1673ffffffffffffffffffffffffffffffffffffffff16815260200190815260200160002060006101000a81548173ffffffffffffffffffffffffffffffffffffffff021916908373ffffffffffffffffffffffffffffffffffffffff16021790555034600760008473ffffffffffffffffffffffffffffffffffffffff1673ffffffffffffffffffffffffffffffffffffffff168152602001908152602001600020600082825401925050819055503360096000600a600081548092919060010191905055815260200190815260200160002060006101000a81548173ffffffffffffffffffffffffffffffffffffffff021916908373ffffffffffffffffffffffffffffffffffffffff1602179055505050565b600043600e81905550600090505b60028111151561097457600060a06040519081016040529081600082018054600181600116156101000203166002900480601f01602080910402602001604051908101604052809291908181526020018280546001816001161561010002031660029004801561041a5780601f106103ef5761010080835404028352916020019161041a565b820191906000526020600020905b8154815290600101906020018083116103fd57829003601f168201915b50505050508152602001600182018054600181600116156101000203166002900480601f0160208091040260200160405190810160405280929190818152602001828054600181600116156101000203166002900480156104bc5780601f10610491576101008083540402835291602001916104bc565b820191906000526020600020905b81548152906001019060200180831161049f57829003601f168201915b50505050508152602001600282018054600181600116156101000203166002900480601f01602080910402602001604051908101604052809291908181526020018280546001816001161561010002031660029004801561055e5780601f106105335761010080835404028352916020019161055e565b820191906000526020600020905b81548152906001019060200180831161054157829003601f168201915b50505050508152602001600382018054600181600116156101000203166002900480601f0160208091040260200160405190810160405280929190818152602001828054600181600116156101000203166002900480156106005780601f106105d557610100808354040283529160200191610600565b820191906000526020600020905b8154815290600101906020018083116105e357829003601f168201915b50505050508152602001600482018054600181600116156101000203166002900480601f0160208091040260200160405190810160405280929190818152602001828054600181600116156101000203166002900480156106a25780601f10610677576101008083540402835291602001916106a2565b820191906000526020600020905b81548152906001019060200180831161068557829003601f168201915b50505050508152505073__verify________________________________630139753890918a8a8a6002876001600e54030103408a60008151811015156106e557fe5b906020019060200201518a60008151811015156106fe57fe5b906020019060200201518a600081518110151561071757fe5b906020019060200201516040518963ffffffff167c0100000000000000000000000000000000000000000000000000000000028152600401610760989796959493929190610de7565b60206040518083038186803b15801561077857600080fd5b505af415801561078c573d6000803e3d6000fd5b505050506040513d601f19601f820116820180604052506107b09190810190610b32565b73ffffffffffffffffffffffffffffffffffffffff16600860006009600080815260200190815260200160002060009054906101000a900473ffffffffffffffffffffffffffffffffffffffff1673ffffffffffffffffffffffffffffffffffffffff1673ffffffffffffffffffffffffffffffffffffffff16815260200190815260200160002060009054906101000a900473ffffffffffffffffffffffffffffffffffffffff1673ffffffffffffffffffffffffffffffffffffffff1614156109675761087f888861012d565b610334600f8190555080601081905550600860006009600080815260200190815260200160002060009054906101000a900473ffffffffffffffffffffffffffffffffffffffff1673ffffffffffffffffffffffffffffffffffffffff1673ffffffffffffffffffffffffffffffffffffffff16815260200190815260200160002060009054906101000a900473ffffffffffffffffffffffffffffffffffffffff16601160006101000a81548173ffffffffffffffffffffffffffffffffffffffff021916908373ffffffffffffffffffffffffffffffffffffffff160217905550610974565b8080600101915050610369565b5050505050505050565b600080600080600043600e54601054600f54601160009054906101000a900473ffffffffffffffffffffffffffffffffffffffff16945094509450945094509091929394565b60006109d08235610fa7565b905092915050565b60006109e48251610fa7565b905092915050565b600082601f83011215156109ff57600080fd5b8135610a12610a0d82610eec565b610ebf565b91508181835260208401935060208101905083856020840282011115610a3757600080fd5b60005b83811015610a675781610a4d8882610af6565b845260208401935060208301925050600181019050610a3a565b5050505092915050565b600082601f8301121515610a8457600080fd5b8135610a97610a9282610f14565b610ebf565b91508181835260208401935060208101905083856020840282011115610abc57600080fd5b60005b83811015610aec5781610ad28882610b0a565b845260208401935060208301925050600181019050610abf565b5050505092915050565b6000610b028235610fc7565b905092915050565b6000610b168235610ff3565b905092915050565b6000610b2a8235610ffd565b905092915050565b600060208284031215610b4457600080fd5b6000610b52848285016109d8565b91505092915050565b60008060408385031215610b6e57600080fd5b6000610b7c858286016109c4565b9250506020610b8d85828601610b1e565b9150509250929050565b60008060408385031215610baa57600080fd5b6000610bb885828601610b1e565b9250506020610bc985828601610b1e565b9150509250929050565b600080600080600080600060e0888a031215610bee57600080fd5b6000610bfc8a828b01610b1e565b9750506020610c0d8a828b01610b1e565b9650506040610c1e8a828b01610b1e565b9550506060610c2f8a828b01610b0a565b945050608088013567ffffffffffffffff811115610c4c57600080fd5b610c588a828b016109ec565b93505060a088013567ffffffffffffffff811115610c7557600080fd5b610c818a828b01610a71565b92505060c088013567ffffffffffffffff811115610c9e57600080fd5b610caa8a828b01610a71565b91505092959891949750929550565b610cc281610f47565b82525050565b610cd181610f67565b82525050565b610ce081610f93565b82525050565b6000610cf182610f3c565b808452610d05816020860160208601611007565b610d0e8161103a565b602085010191505092915050565b600060a0830160008301518482036000860152610d398282610ce6565b91505060208301518482036020860152610d538282610ce6565b91505060408301518482036040860152610d6d8282610ce6565b91505060608301518482036060860152610d878282610ce6565b91505060808301518482036080860152610da18282610ce6565b9150508091505092915050565b610db781610f9d565b82525050565b610dc681610f9d565b82525050565b6000602082019050610de16000830184610cb9565b92915050565b6000610100820190508181036000830152610e02818b610d1c565b9050610e11602083018a610dbd565b610e1e6040830189610dbd565b610e2b6060830188610dbd565b610e386080830187610cd7565b610e4560a0830186610cc8565b610e5260c0830185610cd7565b610e5f60e0830184610cd7565b9998505050505050505050565b600060a082019050610e816000830188610dae565b610e8e6020830187610dae565b610e9b6040830186610dae565b610ea86060830185610dae565b610eb56080830184610cb9565b9695505050505050565b6000604051905081810181811067ffffffffffffffff82111715610ee257600080fd5b8060405250919050565b600067ffffffffffffffff821115610f0357600080fd5b602082029050602081019050919050565b600067ffffffffffffffff821115610f2b57600080fd5b602082029050602081019050919050565b600081519050919050565b600073ffffffffffffffffffffffffffffffffffffffff82169050919050565b60007fff0000000000000000000000000000000000000000000000000000000000000082169050919050565b6000819050919050565b6000819050919050565b600073ffffffffffffffffffffffffffffffffffffffff82169050919050565b60007fff0000000000000000000000000000000000000000000000000000000000000082169050919050565b6000819050919050565b6000819050919050565b60005b8381101561102557808201518184015260208101905061100a565b83811115611034576000848401525b50505050565b6000601f19601f83011690509190505600a265627a7a72305820127c9813a2bba5d5d07bd396f352a383a95d936516d284aec7ce6e56183f77886c6578706572696d656e74616cf50037",
  "source": "pragma solidity >=0.4.21 <0.6.0;\nimport {Bits} from \"./imported/Bits.sol\";\nimport \"./imported/strings.sol\";\nimport \"./imported/verify.sol\";\npragma experimental \"ABIEncoderV2\";\ncontract Short {\n\n    verify.Data data;\n    address public owner;\n    string name = \"Channle\";\n    mapping(address=>uint) balances;\n    mapping(address=>address) identity;\n    mapping(uint=>address) addr;\n    uint addrCounter = 0;\n    using verify for verify.Data;\n    uint balA;\n    uint balB;\n    uint index;\n\n    function Short() public {\n        owner = msg.sender;\n    }\n    //publickeyA, 10\n    function setUp(address party, uint deposit) payable{\n        identity[msg.sender] = party; \n        balances[party] += msg.value;\n        addr[addrCounter++] = msg.sender;\n    }\n\n    uint currentBlk;\n    uint test1;\n    uint test2;\n    address test3;\n    function getInfor() public returns (uint, uint, uint, uint,address){\n       return (block.number, currentBlk, test2, test1,test3);\n    }\n\n\n\n    function terminate(uint A, uint B, uint round, bytes32 blkhash, byte[] _v, bytes32[] _r, bytes32[] _s) {\n        currentBlk = block.number;\n        for (uint i=0; i<=2; i++){\n            if (identity[addr[0]] == data.verifyshort(A, B, round, blockhash(currentBlk-1+i-2), _v[0],  _r[0], _s[0]) ){\n                payout(A, B);\n                test1 = 820;\n                test2 = i;\n                test3 = identity[addr[0]];\n                // test3 = data.verifyshort(A, B, round, blkhash, _v[0],  _r[0], _s[0]);\n                break;\n            }\n        }\n    }\n\n    function payout(uint A, uint B) public payable {  \n        addr[0].send(A);\n        addr[1].send(B);\n    }\n}\n",
  "sourcePath": "/Users/liubowen/sutd/payment_channel_termination/code/contracts/Short.sol",
  "compiler": {
    "name": "solc",
    "version": "0.4.25+commit.59dbf8f1.Emscripten.clang"
  },
  "schemaVersion": "2.0.2",
  "updatedAt": "2019-06-03T10:38:32.826Z"
}