{
  "contractName": "Tower",
  "abi": [
    {
      "constant": true,
      "inputs": [],
      "name": "owner",
      "outputs": [
        {
          "name": "",
          "type": "address"
        }
      ],
      "payable": false,
      "stateMutability": "view",
      "type": "function"
    },
    {
      "inputs": [],
      "payable": false,
      "stateMutability": "nonpayable",
      "type": "constructor"
    },
    {
      "constant": false,
      "inputs": [],
      "name": "deposit",
      "outputs": [],
      "payable": true,
      "stateMutability": "payable",
      "type": "function"
    },
    {
      "constant": false,
      "inputs": [
        {
          "name": "sender",
          "type": "address"
        }
      ],
      "name": "withdraw",
      "outputs": [],
      "payable": true,
      "stateMutability": "payable",
      "type": "function"
    },
    {
      "constant": false,
      "inputs": [
        {
          "name": "cid",
          "type": "address"
        },
        {
          "name": "round",
          "type": "uint256"
        }
      ],
      "name": "find",
      "outputs": [
        {
          "name": "",
          "type": "uint256"
        }
      ],
      "payable": false,
      "stateMutability": "nonpayable",
      "type": "function"
    },
    {
      "constant": false,
      "inputs": [
        {
          "name": "cid",
          "type": "address"
        },
        {
          "name": "A",
          "type": "uint256"
        },
        {
          "name": "B",
          "type": "uint256"
        },
        {
          "name": "round",
          "type": "uint256"
        }
      ],
      "name": "close",
      "outputs": [
        {
          "name": "",
          "type": "uint256"
        }
      ],
      "payable": false,
      "stateMutability": "nonpayable",
      "type": "function"
    },
    {
      "constant": false,
      "inputs": [],
      "name": "getCid",
      "outputs": [
        {
          "name": "",
          "type": "address[]"
        }
      ],
      "payable": false,
      "stateMutability": "nonpayable",
      "type": "function"
    },
    {
      "constant": false,
      "inputs": [
        {
          "name": "addr",
          "type": "address"
        }
      ],
      "name": "getDeposit",
      "outputs": [
        {
          "name": "",
          "type": "uint256"
        }
      ],
      "payable": false,
      "stateMutability": "nonpayable",
      "type": "function"
    },
    {
      "constant": false,
      "inputs": [],
      "name": "getInfor",
      "outputs": [
        {
          "name": "",
          "type": "uint256"
        },
        {
          "name": "",
          "type": "uint256"
        }
      ],
      "payable": false,
      "stateMutability": "nonpayable",
      "type": "function"
    },
    {
      "constant": false,
      "inputs": [
        {
          "name": "value",
          "type": "uint256[]"
        }
      ],
      "name": "update",
      "outputs": [],
      "payable": false,
      "stateMutability": "nonpayable",
      "type": "function"
    },
    {
      "constant": false,
      "inputs": [
        {
          "name": "_counter",
          "type": "uint256"
        }
      ],
      "name": "callBack",
      "outputs": [],
      "payable": false,
      "stateMutability": "nonpayable",
      "type": "function"
    }
  ],
  "bytecode": "0x6080604052600060085534801561001557600080fd5b5033600560006101000a81548173ffffffffffffffffffffffffffffffffffffffff021916908373ffffffffffffffffffffffffffffffffffffffff16021790555061114b806100666000396000f3006080604052600436106100a4576000357c0100000000000000000000000000000000000000000000000000000000900463ffffffff16806304d31480146100a9578063262dc830146100d25780633a0744b51461010f57806351cff8d91461014c5780638da5cb5b14610168578063a212c84114610193578063ca00c702146101bc578063d0e30db0146101e7578063e1254fba146101f1578063f2b677fe1461022e575b600080fd5b3480156100b557600080fd5b506100d060048036036100cb9190810190610f20565b61025a565b005b3480156100de57600080fd5b506100f960048036036100f49190810190610e40565b610725565b6040516101069190610fff565b60405180910390f35b34801561011b57600080fd5b5061013660048036036101319190810190610e7c565b6107f7565b6040516101439190610fff565b60405180910390f35b61016660048036036101619190810190610e17565b610a05565b005b34801561017457600080fd5b5061017d610a86565b60405161018a9190610fc2565b60405180910390f35b34801561019f57600080fd5b506101ba60048036036101b59190810190610edf565b610aac565b005b3480156101c857600080fd5b506101d1610b9e565b6040516101de9190610fdd565b60405180910390f35b6101ef610c42565b005b3480156101fd57600080fd5b5061021860048036036102139190810190610e17565b610c91565b6040516102259190610fff565b60405180910390f35b34801561023a57600080fd5b50610243610cda565b60405161025192919061101a565b60405180910390f35b60008090505b60096000838152602001908152602001600020600001805490508110156106a55760016102dd6101008381151561029357fe5b0660076000868152602001908152602001600020600001610100858115156102b757fe5b048154811015156102c457fe5b9060005260206000200154610ceb90919063ffffffff16565b14156104c8576064600a60008282540192505081905550600960008381526020019081526020016000206000018181548110151561031757fe5b9060005260206000200160009054906101000a900473ffffffffffffffffffffffffffffffffffffffff1673ffffffffffffffffffffffffffffffffffffffff1660405180807f7061796f75742875696e743235362c75696e743235362c75696e743235362c7581526020017f696e743235362900000000000000000000000000000000000000000000000000815250602701905060405180910390207c0100000000000000000000000000000000000000000000000000000000900460096000858152602001908152602001600020600101838154811015156103f757fe5b9060005260206000200154600960008681526020019081526020016000206002018481548110151561042557fe5b9060005260206000200154600960008781526020019081526020016000206003018581548110151561045357fe5b906000526020600020015460016040518563ffffffff167c0100000000000000000000000000000000000000000000000000000000028152600401808581526020018481526020018381526020018260ff1681526020019450505050506000604051808303816000875af19250505050610698565b60096000838152602001908152602001600020600001818154811015156104eb57fe5b9060005260206000200160009054906101000a900473ffffffffffffffffffffffffffffffffffffffff1673ffffffffffffffffffffffffffffffffffffffff1660405180807f7061796f75742875696e743235362c75696e743235362c75696e743235362c7581526020017f696e743235362900000000000000000000000000000000000000000000000000815250602701905060405180910390207c0100000000000000000000000000000000000000000000000000000000900460096000858152602001908152602001600020600101838154811015156105cb57fe5b906000526020600020015460096000868152602001908152602001600020600201848154811015156105f957fe5b9060005260206000200154600960008781526020019081526020016000206003018581548110151561062757fe5b906000526020600020015460006040518563ffffffff167c0100000000000000000000000000000000000000000000000000000000028152600401808581526020018481526020018381526020018260ff1681526020019450505050506000604051808303816000875af192505050505b8080600101915050610260565b60096000838152602001908152602001600020600080820160006106c99190610d03565b6001820160006106d99190610d24565b6002820160006106e99190610d24565b6003820160006106f99190610d24565b5050600760008381526020019081526020016000206000808201600061071f9190610d24565b50505050565b600080600090505b600960006008548152602001908152602001600020600001805490508110156107eb578373ffffffffffffffffffffffffffffffffffffffff166009600060085481526020019081526020016000206000018281548110151561078c57fe5b9060005260206000200160009054906101000a900473ffffffffffffffffffffffffffffffffffffffff1673ffffffffffffffffffffffffffffffffffffffff1614156107de576001810191506107f0565b808060010191505061072d565b600091505b5092915050565b6000806108048684610725565b90506000811415610956576009600060085481526020019081526020016000206000018690806001815401808255809150509060018203906000526020600020016000909192909190916101000a81548173ffffffffffffffffffffffffffffffffffffffff021916908373ffffffffffffffffffffffffffffffffffffffff160217905550506009600060085481526020019081526020016000206001018590806001815401808255809150509060018203906000526020600020016000909192909190915055506009600060085481526020019081526020016000206002018490806001815401808255809150509060018203906000526020600020016000909192909190915055506009600060085481526020019081526020016000206003018390806001815401808255809150509060018203906000526020600020016000909192909190915055506109fc565b846009600060085481526020019081526020016000206001016001830381548110151561097f57fe5b906000526020600020018190555083600960006008548152602001908152602001600020600201600183038154811015156109b657fe5b906000526020600020018190555082600960006008548152602001908152602001600020600301600183038154811015156109ed57fe5b90600052602060002001819055505b50949350505050565b6101f5600b819055508073ffffffffffffffffffffffffffffffffffffffff166108fc600660008473ffffffffffffffffffffffffffffffffffffffff1673ffffffffffffffffffffffffffffffffffffffff168152602001908152602001600020549081150290604051600060405180830381858888f193505050505050565b600560009054906101000a900473ffffffffffffffffffffffffffffffffffffffff1681565b6000600560009054906101000a900473ffffffffffffffffffffffffffffffffffffffff1673ffffffffffffffffffffffffffffffffffffffff163373ffffffffffffffffffffffffffffffffffffffff16141515610b0757fe5b600090505b8151811015610b7b576007600060085481526020019081526020016000206000018282815181101515610b3b57fe5b9060200190602002015190806001815401808255809150509060018203906000526020600020016000909192909190915055508080600101915050610b0c565b6001600860008282540192505081905550610b9a60016008540361025a565b5050565b6060600960006008548152602001908152602001600020600001805480602002602001604051908101604052809291908181526020018280548015610c3857602002820191906000526020600020905b8160009054906101000a900473ffffffffffffffffffffffffffffffffffffffff1673ffffffffffffffffffffffffffffffffffffffff1681526020019060010190808311610bee575b5050505050905090565b34600660003373ffffffffffffffffffffffffffffffffffffffff1673ffffffffffffffffffffffffffffffffffffffff16815260200190815260200160002060008282540192505081905550565b6000600660008373ffffffffffffffffffffffffffffffffffffffff1673ffffffffffffffffffffffffffffffffffffffff168152602001908152602001600020549050919050565b600080600a54600b54915091509091565b6000600182849060020a90041660ff16905092915050565b5080546000825590600052602060002090810190610d219190610d45565b50565b5080546000825590600052602060002090810190610d429190610d45565b50565b610d6791905b80821115610d63576000816000905550600101610d4b565b5090565b90565b6000610d7682356110e7565b905092915050565b600082601f8301121515610d9157600080fd5b8135610da4610d9f82611070565b611043565b91508181835260208401935060208101905083856020840282011115610dc957600080fd5b60005b83811015610df95781610ddf8882610e03565b845260208401935060208301925050600181019050610dcc565b5050505092915050565b6000610e0f8235611107565b905092915050565b600060208284031215610e2957600080fd5b6000610e3784828501610d6a565b91505092915050565b60008060408385031215610e5357600080fd5b6000610e6185828601610d6a565b9250506020610e7285828601610e03565b9150509250929050565b60008060008060808587031215610e9257600080fd5b6000610ea087828801610d6a565b9450506020610eb187828801610e03565b9350506040610ec287828801610e03565b9250506060610ed387828801610e03565b91505092959194509250565b600060208284031215610ef157600080fd5b600082013567ffffffffffffffff811115610f0b57600080fd5b610f1784828501610d7e565b91505092915050565b600060208284031215610f3257600080fd5b6000610f4084828501610e03565b91505092915050565b610f52816110bd565b82525050565b6000610f63826110a5565b808452602084019350610f7583611098565b60005b82811015610fa757610f8b868351610f49565b610f94826110b0565b9150602086019550600181019050610f78565b50849250505092915050565b610fbc816110dd565b82525050565b6000602082019050610fd76000830184610f49565b92915050565b60006020820190508181036000830152610ff78184610f58565b905092915050565b60006020820190506110146000830184610fb3565b92915050565b600060408201905061102f6000830185610fb3565b61103c6020830184610fb3565b9392505050565b6000604051905081810181811067ffffffffffffffff8211171561106657600080fd5b8060405250919050565b600067ffffffffffffffff82111561108757600080fd5b602082029050602081019050919050565b6000602082019050919050565b600081519050919050565b6000602082019050919050565b600073ffffffffffffffffffffffffffffffffffffffff82169050919050565b6000819050919050565b600073ffffffffffffffffffffffffffffffffffffffff82169050919050565b60008190509190505600a265627a7a723058204e5dd2e3ef76e9352af9ddbb5f7e92588aeeefb27cec3a2f5ed10f070979153b6c6578706572696d656e74616cf50037",
  "source": "pragma solidity >=0.4.21 <0.6.0;\nimport {Bits} from \"./imported/Bits.sol\";\nimport \"./imported/strings.sol\";\nimport \"./imported/verify.sol\";\npragma experimental \"ABIEncoderV2\";\ncontract Tower {\n\n    verify.Data data;\n    using verify for verify.Data;\n    address public owner;\n    using Bits for uint256;\n    // using Bits for uint8;\n    mapping(address=>uint) balances;\n    mapping(uint=>MAPSTR) bitmap;\n    // mapping(uint=>uint8) bitmap;\n    struct MAPSTR {\n        uint[] mapList;\n    }\n    // uint blkNum;\n    uint counter = 0;\n    mapping(uint=>CID) cidMapping;\n    struct CID {\n        address[] channelID;\n        uint[] balA;\n        uint[] balB;\n        uint[] round;\n    }\n    // uint tag = 0;\n    function Tower() public {\n        owner = msg.sender;\n    }\n\n    function deposit() public payable{\n        balances[msg.sender] += msg.value;\n    }\n\n    function withdraw(address sender) public payable{\n        test2 = 501;\n        sender.send(balances[sender]);\n    }\n\n    function find(address cid, uint round) returns (uint) {\n        for (uint i=0; i<cidMapping[counter].channelID.length; i++){\n            if (cidMapping[counter].channelID[i] == cid){\n                return i+1;\n            }\n        } \n        return 0;\n    }\n\n    function close(address cid, uint A, uint B, uint round) returns (uint){\n        uint index = find(cid, round);\n        if (index == 0){\n            cidMapping[counter].channelID.push(cid);\n            cidMapping[counter].balA.push(A);\n            cidMapping[counter].balB.push(B);\n            cidMapping[counter].round.push(round);\n        }else {\n            cidMapping[counter].balA[index-1] = A;\n            cidMapping[counter].balB[index-1] = B;\n            cidMapping[counter].round[index-1] = round;\n        } \n    }\n\n    function getCid() public returns (address[]){\n       return cidMapping[counter].channelID;\n    }\n\n    function getDeposit(address addr) returns (uint){\n        return balances[addr];\n    }\n\n    uint test1;\n    uint test2;\n    function getInfor() public returns (uint, uint){\n       return (test1, test2);\n    }\n\n    function update(uint[] value) public {\n        assert(msg.sender == owner);\n        for (uint i=0; i<value.length; i++){\n            bitmap[counter].mapList.push(value[i]);\n        }\n        counter += 1;\n        callBack(counter - 1);\n    }\n\n    function callBack(uint _counter) public {\n        for (uint i=0; i<cidMapping[_counter].channelID.length; i++){\n            if (bitmap[_counter].mapList[i/256].bit(i%256) == 1){\n                test1 += 100;\n                // cidMapping[counter].channelID[i].call(bytes4(keccak256(\"payout(uint256,uint256,uint256,uint256)\")),cidMapping[blkNum].balA[i], cidMapping[blkNum].balB[i], cidMapping[blkNum].round[i], 1);\n                cidMapping[_counter].channelID[i].call(bytes4(keccak256(\"payout(uint256,uint256,uint256,uint256)\")),cidMapping[_counter].balA[i], cidMapping[_counter].balB[i], cidMapping[_counter].round[i], 1);\n            }else {\n                // cidMapping[counter].channelID[i].call(bytes4(keccak256(\"payout(uint256,uint256,uint256,uint256)\")),cidMapping[blkNum].balA[i], cidMapping[blkNum].balB[i], cidMapping[blkNum].round[i], 1);\n                cidMapping[_counter].channelID[i].call(bytes4(keccak256(\"payout(uint256,uint256,uint256,uint256)\")),cidMapping[_counter].balA[i], cidMapping[_counter].balB[i], cidMapping[_counter].round[i], 0);\n            }\n        } \n        delete cidMapping[_counter];\n        delete bitmap[_counter];\n    }\n}\n",
  "sourcePath": "/Users/liubowen/sutd/payment_channel_termination/code/contracts/Tower.sol",
  "compiler": {
    "name": "solc",
    "version": "0.4.25+commit.59dbf8f1.Emscripten.clang"
  },
  "schemaVersion": "2.0.2",
  "updatedAt": "2019-06-03T10:38:56.356Z"
}