{
  "contractName": "verify",
  "abi": [
    {
      "constant": false,
      "inputs": [
        {
          "name": "b32",
          "type": "bytes32"
        }
      ],
      "name": "bytes32string",
      "outputs": [
        {
          "name": "out",
          "type": "string"
        }
      ],
      "payable": false,
      "stateMutability": "nonpayable",
      "type": "function"
    },
    {
      "constant": false,
      "inputs": [
        {
          "name": "i",
          "type": "uint256"
        }
      ],
      "name": "uint2str",
      "outputs": [
        {
          "name": "",
          "type": "string"
        }
      ],
      "payable": false,
      "stateMutability": "nonpayable",
      "type": "function"
    },
    {
      "constant": false,
      "inputs": [
        {
          "name": "inBytes",
          "type": "bytes"
        }
      ],
      "name": "convertBytesToBytes4",
      "outputs": [
        {
          "name": "outBytes4",
          "type": "bytes8"
        }
      ],
      "payable": false,
      "stateMutability": "nonpayable",
      "type": "function"
    },
    {
      "constant": false,
      "inputs": [
        {
          "components": [
            {
              "name": "len_message",
              "type": "string"
            },
            {
              "name": "whole",
              "type": "string"
            },
            {
              "name": "first_",
              "type": "string"
            },
            {
              "name": "second_",
              "type": "string"
            },
            {
              "name": "third_",
              "type": "string"
            }
          ],
          "name": "data",
          "type": "tuple"
        },
        {
          "name": "A",
          "type": "uint256"
        },
        {
          "name": "B",
          "type": "uint256"
        },
        {
          "name": "round",
          "type": "uint256"
        },
        {
          "name": "random",
          "type": "uint256"
        },
        {
          "name": "_v",
          "type": "bytes1"
        },
        {
          "name": "_r",
          "type": "bytes32"
        },
        {
          "name": "_s",
          "type": "bytes32"
        }
      ],
      "name": "verifyidentity",
      "outputs": [
        {
          "name": "",
          "type": "address"
        }
      ],
      "payable": false,
      "stateMutability": "nonpayable",
      "type": "function"
    },
    {
      "constant": false,
      "inputs": [
        {
          "components": [
            {
              "name": "len_message",
              "type": "string"
            },
            {
              "name": "whole",
              "type": "string"
            },
            {
              "name": "first_",
              "type": "string"
            },
            {
              "name": "second_",
              "type": "string"
            },
            {
              "name": "third_",
              "type": "string"
            }
          ],
          "name": "data",
          "type": "tuple"
        },
        {
          "name": "Hvalue",
          "type": "bytes32"
        },
        {
          "name": "round",
          "type": "uint256"
        },
        {
          "name": "_v",
          "type": "bytes1"
        },
        {
          "name": "_r",
          "type": "bytes32"
        },
        {
          "name": "_s",
          "type": "bytes32"
        }
      ],
      "name": "verifytower",
      "outputs": [
        {
          "name": "",
          "type": "address"
        }
      ],
      "payable": false,
      "stateMutability": "nonpayable",
      "type": "function"
    },
    {
      "constant": false,
      "inputs": [
        {
          "components": [
            {
              "name": "len_message",
              "type": "string"
            },
            {
              "name": "whole",
              "type": "string"
            },
            {
              "name": "first_",
              "type": "string"
            },
            {
              "name": "second_",
              "type": "string"
            },
            {
              "name": "third_",
              "type": "string"
            }
          ],
          "name": "data",
          "type": "tuple"
        },
        {
          "name": "A",
          "type": "uint256"
        },
        {
          "name": "B",
          "type": "uint256"
        },
        {
          "name": "round",
          "type": "uint256"
        },
        {
          "name": "blkhash",
          "type": "bytes32"
        },
        {
          "name": "_v",
          "type": "bytes1"
        },
        {
          "name": "_r",
          "type": "bytes32"
        },
        {
          "name": "_s",
          "type": "bytes32"
        }
      ],
      "name": "verifyshort",
      "outputs": [
        {
          "name": "",
          "type": "address"
        }
      ],
      "payable": false,
      "stateMutability": "nonpayable",
      "type": "function"
    }
  ],
  "bytecode": "0x6116af610030600b82828239805160001a6073146000811461002057610022565bfe5b5030600052607381538281f300730000000000000000000000000000000000000000301460806040526004361061008f576000357c0100000000000000000000000000000000000000000000000000000000900463ffffffff1680630139753814610094578063252fb38d146100d15780635a509ae51461010e57806371bdb8831461014b578063b1036e9b14610188578063f76f950e146101c5575b600080fd5b8180156100a057600080fd5b506100bb60048036036100b69190810190611223565b610202565b6040516100c89190611452565b60405180910390f35b8180156100dd57600080fd5b506100f860048036036100f39190810190611118565b61044a565b60405161010591906114cd565b60405180910390f35b81801561011a57600080fd5b5061013560048036036101309190810190611141565b61064e565b60405161014291906114b2565b60405180910390f35b81801561015757600080fd5b50610172600480360361016d9190810190611182565b61068a565b60405161017f9190611452565b60405180910390f35b81801561019457600080fd5b506101af60048036036101aa91908101906112ed565b610862565b6040516101bc9190611452565b60405180910390f35b8180156101d157600080fd5b506101ec60048036036101e791908101906113b7565b610b14565b6040516101f991906114cd565b60405180910390f35b6000606061023961021a6102158a610b14565b610c6b565b61022b6102268c610b14565b610c6b565b610c9990919063ffffffff16565b8a6040018190525061027061025561025089610b14565b610c6b565b6102628c60400151610c6b565b610c9990919063ffffffff16565b8a606001819052506102a761028c6102878861044a565b610c6b565b6102998c60600151610c6b565b610c9990919063ffffffff16565b8a608001819052506102cc6102c76102c28c60800151610c6b565b610d1b565b610b14565b8a600001819052506103306102e48b60000151610c6b565b6103226040805190810160405280601a81526020017f19457468657265756d205369676e6564204d6573736167653a0a000000000000815250610c6b565b610c9990919063ffffffff16565b90506103596103428b60800151610c6b565b61034b83610c6b565b610c9990919063ffffffff16565b8a6020018190525060018a602001516040518082805190602001908083835b60208310151561039d5780518252602082019150602081019050602083039250610378565b6001836020036101000a0380198251168184511680821785525050505050509050019150506040518091039020867f0100000000000000000000000000000000000000000000000000000000000000900486866040516000815260200160405260405161040d949392919061146d565b60206040516020810390808403906000865af1158015610431573d6000803e3d6000fd5b5050506020604051035191505098975050505050505050565b606080600080600080604080519080825280601f01601f1916602001820160405280156104865781602001602082028038833980820191505090505b509450600093505b60208460ff16101561064157868460ff166020811015156104ab57fe5b1a7f01000000000000000000000000000000000000000000000000000000000000000292506010837f0100000000000000000000000000000000000000000000000000000000000000900460ff1681151561050257fe5b047f0100000000000000000000000000000000000000000000000000000000000000029150817f01000000000000000000000000000000000000000000000000000000000000009004601002837f01000000000000000000000000000000000000000000000000000000000000009004037f01000000000000000000000000000000000000000000000000000000000000000290506105a082610ddb565b856002860260ff168151811015156105b457fe5b9060200101907effffffffffffffffffffffffffffffffffffffffffffffffffffffffffffff1916908160001a9053506105ed81610ddb565b856001600287020160ff1681518110151561060457fe5b9060200101907effffffffffffffffffffffffffffffffffffffffffffffffffffffffffffff1916908160001a905350838060010194505061048e565b8495505050505050919050565b6000808251141561067d5760007801000000000000000000000000000000000000000000000000029050610685565b602082015190505b919050565b600060606106c16106a261069d88610b14565b610c6b565b6106b36106ae8a61044a565b610c6b565b610c9990919063ffffffff16565b88604001819052506106e66106e16106dc8a60400151610c6b565b610d1b565b610b14565b886000018190525061074a6106fe8960000151610c6b565b61073c6040805190810160405280601a81526020017f19457468657265756d205369676e6564204d6573736167653a0a000000000000815250610c6b565b610c9990919063ffffffff16565b905061077361075c8960400151610c6b565b61076583610c6b565b610c9990919063ffffffff16565b8860200181905250600188602001516040518082805190602001908083835b6020831015156107b75780518252602082019150602081019050602083039250610792565b6001836020036101000a0380198251168184511680821785525050505050509050019150506040518091039020867f01000000000000000000000000000000000000000000000000000000000000009004868660405160008152602001604052604051610827949392919061146d565b60206040516020810390808403906000865af115801561084b573d6000803e3d6000fd5b505050602060405103519150509695505050505050565b6000606061089961087a6108758a610b14565b610c6b565b61088b6108868c610b14565b610c6b565b610c9990919063ffffffff16565b8a604001819052506108d06108b56108b088610b14565b610c6b565b6108c28c60400151610c6b565b610c9990919063ffffffff16565b8a606001819052506109716108ec6108e789610b14565b610c6b565b61096361095e8d606001516040518082805190602001908083835b60208310151561092c5780518252602082019150602081019050602083039250610907565b6001836020036101000a038019825116818451168082178552505050505050905001915050604051809103902061044a565b610c6b565b610c9990919063ffffffff16565b8a6080018190525061099661099161098c8c60800151610c6b565b610d1b565b610b14565b8a600001819052506109fa6109ae8b60000151610c6b565b6109ec6040805190810160405280601a81526020017f19457468657265756d205369676e6564204d6573736167653a0a000000000000815250610c6b565b610c9990919063ffffffff16565b9050610a23610a0c8b60800151610c6b565b610a1583610c6b565b610c9990919063ffffffff16565b8a6020018190525060018a602001516040518082805190602001908083835b602083101515610a675780518252602082019150602081019050602083039250610a42565b6001836020036101000a0380198251168184511680821785525050505050509050019150506040518091039020867f01000000000000000000000000000000000000000000000000000000000000009004868660405160008152602001604052604051610ad7949392919061146d565b60206040516020810390808403906000865af1158015610afb573d6000803e3d6000fd5b5050506020604051035191505098975050505050505050565b60606000806060600080861415610b62576040805190810160405280600181526020017f30000000000000000000000000000000000000000000000000000000000000008152509450610c62565b8593505b600084141515610b8c578280600101935050600a84811515610b8457fe5b049350610b66565b826040519080825280601f01601f191660200182016040528015610bbf5781602001602082028038833980820191505090505b5091506001830390505b600086141515610c5e57600a86811515610bdf57fe5b066030017f010000000000000000000000000000000000000000000000000000000000000002828280600190039350815181101515610c1a57fe5b9060200101907effffffffffffffffffffffffffffffffffffffffffffffffffffffffffffff1916908160001a905350600a86811515610c5657fe5b049550610bc9565b8194505b50505050919050565b610c73610f16565b600060208301905060408051908101604052808451815260200182815250915050919050565b606080600083600001518560000151016040519080825280601f01601f191660200182016040528015610cdb5781602001602082028038833980820191505090505b509150602082019050610cf78186602001518760000151610ecb565b610d108560000151820185602001518660000151610ecb565b819250505092915050565b600080600080601f8560200151039250846000015183019150600093505b81831015610dd35760ff835116905060808160ff161015610d5f57600183019250610dc6565b60e08160ff161015610d7657600283019250610dc5565b60f08160ff161015610d8d57600383019250610dc4565b60f88160ff161015610da457600483019250610dc3565b60fc8160ff161015610dbb57600583019250610dc2565b6006830192505b5b5b5b5b8380600101945050610d39565b505050919050565b6000600a7f010000000000000000000000000000000000000000000000000000000000000002827effffffffffffffffffffffffffffffffffffffffffffffffffffffffffffff19161015610e7a576030827f01000000000000000000000000000000000000000000000000000000000000009004017f0100000000000000000000000000000000000000000000000000000000000000029050610ec6565b6057827f01000000000000000000000000000000000000000000000000000000000000009004017f01000000000000000000000000000000000000000000000000000000000000000290505b919050565b60005b602082101515610ef35782518452602084019350602083019250602082039150610ece565b6001826020036101000a0390508019835116818551168181178652505050505050565b604080519081016040528060008152602001600081525090565b6000610f3c82356115e2565b905092915050565b6000610f50823561160e565b905092915050565b600082601f8301121515610f6b57600080fd5b8135610f7e610f798261151c565b6114ef565b91508082526020830160208301858383011115610f9a57600080fd5b610fa5838284611622565b50505092915050565b600082601f8301121515610fc157600080fd5b8135610fd4610fcf82611548565b6114ef565b91508082526020830160208301858383011115610ff057600080fd5b610ffb838284611622565b50505092915050565b600060a0828403121561101657600080fd5b61102060a06114ef565b9050600082013567ffffffffffffffff81111561103c57600080fd5b61104884828501610fae565b600083015250602082013567ffffffffffffffff81111561106857600080fd5b61107484828501610fae565b602083015250604082013567ffffffffffffffff81111561109457600080fd5b6110a084828501610fae565b604083015250606082013567ffffffffffffffff8111156110c057600080fd5b6110cc84828501610fae565b606083015250608082013567ffffffffffffffff8111156110ec57600080fd5b6110f884828501610fae565b60808301525092915050565b60006111108235611618565b905092915050565b60006020828403121561112a57600080fd5b600061113884828501610f44565b91505092915050565b60006020828403121561115357600080fd5b600082013567ffffffffffffffff81111561116d57600080fd5b61117984828501610f58565b91505092915050565b60008060008060008060c0878903121561119b57600080fd5b600087013567ffffffffffffffff8111156111b557600080fd5b6111c189828a01611004565b96505060206111d289828a01610f44565b95505060406111e389828a01611104565b94505060606111f489828a01610f30565b935050608061120589828a01610f44565b92505060a061121689828a01610f44565b9150509295509295509295565b600080600080600080600080610100898b03121561124057600080fd5b600089013567ffffffffffffffff81111561125a57600080fd5b6112668b828c01611004565b98505060206112778b828c01611104565b97505060406112888b828c01611104565b96505060606112998b828c01611104565b95505060806112aa8b828c01610f44565b94505060a06112bb8b828c01610f30565b93505060c06112cc8b828c01610f44565b92505060e06112dd8b828c01610f44565b9150509295985092959890939650565b600080600080600080600080610100898b03121561130a57600080fd5b600089013567ffffffffffffffff81111561132457600080fd5b6113308b828c01611004565b98505060206113418b828c01611104565b97505060406113528b828c01611104565b96505060606113638b828c01611104565b95505060806113748b828c01611104565b94505060a06113858b828c01610f30565b93505060c06113968b828c01610f44565b92505060e06113a78b828c01610f44565b9150509295985092959890939650565b6000602082840312156113c957600080fd5b60006113d784828501611104565b91505092915050565b6113e98161157f565b82525050565b6113f88161159f565b82525050565b611407816115a9565b82525050565b600061141882611574565b80845261142c816020860160208601611631565b61143581611664565b602085010191505092915050565b61144c816115d5565b82525050565b600060208201905061146760008301846113e0565b92915050565b600060808201905061148260008301876113ef565b61148f6020830186611443565b61149c60408301856113ef565b6114a960608301846113ef565b95945050505050565b60006020820190506114c760008301846113fe565b92915050565b600060208201905081810360008301526114e7818461140d565b905092915050565b6000604051905081810181811067ffffffffffffffff8211171561151257600080fd5b8060405250919050565b600067ffffffffffffffff82111561153357600080fd5b601f19601f8301169050602081019050919050565b600067ffffffffffffffff82111561155f57600080fd5b601f19601f8301169050602081019050919050565b600081519050919050565b600073ffffffffffffffffffffffffffffffffffffffff82169050919050565b6000819050919050565b60007fffffffffffffffff00000000000000000000000000000000000000000000000082169050919050565b600060ff82169050919050565b60007fff0000000000000000000000000000000000000000000000000000000000000082169050919050565b6000819050919050565b6000819050919050565b82818337600083830152505050565b60005b8381101561164f578082015181840152602081019050611634565b8381111561165e576000848401525b50505050565b6000601f19601f83011690509190505600a265627a7a7230582018b010870fe2766f5105c382e481e75b5b61b7f50280cb99e423d2bd63a7b4146c6578706572696d656e74616cf50037",
  "source": "pragma solidity ^0.4.24;\nimport \"./strings.sol\";\npragma experimental \"ABIEncoderV2\";\n\n\nlibrary verify {\n    using strings for *;\n\n    function bytesToBytes32(bytes b, uint offset) private pure returns (bytes32) {\n        bytes32 out;\n        for (uint i = 0; i < 32; i++) {\n            out |= bytes32(b[offset + i] & 0xFF) >> (i * 8);\n        }\n        return out;\n    }\n\n    function conver(bytes call_data) private view returns (string){\n        bytes memory data = new bytes(call_data.length);\n        for (uint i = 0; i < call_data.length; i++) {\n            data[i] = call_data[i];\n        }\n        return bytesArrayToString(data);\n    }\n\n    function bytesArrayToString(bytes memory _bytes) private returns (string) {\n        return string(_bytes);\n    } //\n\n    function recursi(bytes call_data, uint i) private returns (string){\n        return bytes32string(bytesToBytes32(call_data, i));\n    } \n\n    function bytesToBytes32(bytes memory source) private pure returns (bytes32 result) {\n        assembly { \n            //mload(p) -->  mem[p..(p+32)) \n            result := mload(add(source, 32))\n        }\n    }\n\n    function char(byte b) private returns (byte c) {\n        if (b < 10) \n            return byte(uint8(b) + 0x30);\n        else \n            return byte(uint8(b) + 0x57);\n    }\n\n    function bytes32string(bytes32 b32) public returns (string out) {\n        bytes memory s = new bytes(64);\n        for (var i = 0; i < 32; i++) {\n            byte b = byte(b32[i]);\n            byte hi = byte(uint8(b) / 16);\n            byte lo = byte(uint8(b) - 16 * uint8(hi));\n            s[i*2] = char(hi);\n            s[i*2+1] = char(lo);            \n        }\n        out = string(s);\n    }\n\n    function uint2str(uint i) public returns (string memory){\n        if (i == 0) return \"0\";\n        uint j = i;\n        uint length;\n        while (j != 0){\n            length++;\n            j /= 10;\n        }\n        bytes memory bstr = new bytes(length);\n        uint k = length - 1;\n        while (i != 0){\n            bstr[k--] = byte(48 + i % 10);\n            i /= 10;\n        }\n        return string(bstr);\n    }\n\n    function toBytes(address x) private returns (bytes b) {\n        b = new bytes(20);\n        for (uint i = 0; i < 20; i++)\n            b[i] = byte(uint8(uint(x) / (2**(8*(19 - i)))));\n    }\n\n    function toHexDigit(uint8 d) pure internal returns (byte) {                                                                                      \n        if (0 <= d && d <= 9) {                                                                                                                      \n            return byte(uint8(byte('0')) + d);                                                                                                       \n        } else if (10 <= uint8(d) && uint8(d) <= 15) {                                                                                               \n            return byte(uint8(byte('a')) + d - 10);                                                                                                  \n        }                                                                                                                                            \n        revert();                                                                                                                                    \n    }  \n\n    function fromCode(bytes4 code) private view returns (string) {                                                                                    \n        bytes memory result = new bytes(10);                                                                                                         \n        result[0] = byte('0');\n        result[1] = byte('x');\n        for (uint i=0; i<4; ++i) {\n            result[2*i+2] = toHexDigit(uint8(code[i])/16);\n            result[2*i+3] = toHexDigit(uint8(code[i])%16);\n        }\n        return string(result);\n    }\n\n    function convertBytesToBytes4(bytes inBytes) returns (bytes8 outBytes4) {\n        if (inBytes.length == 0) {\n            return 0x0;\n        }\n\n        assembly {\n            outBytes4 := mload(add(inBytes, 32))\n        }\n    }\n\n    struct Data {\n        string  len_message;\n        string  whole;\n        string  first_;\n        string  second_;\n        string  third_;\n    }\n    \n    function verifyidentity(Data data, uint A, uint B, uint round, uint random, byte _v, bytes32 _r, bytes32 _s) public returns (address) {\n        data.first_ = uint2str(A).toSlice().concat(uint2str(B).toSlice());\n        data.second_ = data.first_.toSlice().concat(uint2str(random).toSlice());\n        // data.first_ = bytes32string(hvalue).toSlice().concat(uint2str(round).toSlice());\n        data.third_ = bytes32string(keccak256(data.second_)).toSlice().concat(uint2str(round).toSlice());\n        // data.second_ = data.first_.toSlice().concat(uint2str(round).toSlice());\n        data.len_message = uint2str(data.third_.toSlice().len());\n        string memory pref1 = \"\\x19Ethereum Signed Message:\\n\".toSlice().concat(data.len_message.toSlice());\n        data.whole = pref1.toSlice().concat(data.third_.toSlice());    \n        return ecrecover(keccak256(data.whole), uint8(_v), _r, _s);\n    }\n\n    function verifytower(Data data, bytes32 Hvalue, uint round, byte _v, bytes32 _r, bytes32 _s) public returns (address) {\n        data.first_ = bytes32string(Hvalue).toSlice().concat(uint2str(round).toSlice());\n        // data.second_ = data.first_.toSlice().concat(uint2str(round).toSlice());\n        data.len_message = uint2str(data.first_.toSlice().len());\n        string memory pref1 = \"\\x19Ethereum Signed Message:\\n\".toSlice().concat(data.len_message.toSlice());\n        data.whole = pref1.toSlice().concat(data.first_.toSlice());\n        // return data.whole;\n        return ecrecover(keccak256(data.whole), uint8(_v), _r, _s);\n    }\n\n\n    function verifyshort(Data data, uint A, uint B, uint round, bytes32 blkhash, byte _v, bytes32 _r, bytes32 _s) public returns (address) {\n        data.first_ = uint2str(A).toSlice().concat(uint2str(B).toSlice());\n        data.second_ = data.first_.toSlice().concat(uint2str(round).toSlice());\n        data.third_ = data.second_.toSlice().concat(bytes32string(blkhash).toSlice());\n        data.len_message = uint2str(data.third_.toSlice().len());\n        string memory pref1 = \"\\x19Ethereum Signed Message:\\n\".toSlice().concat(data.len_message.toSlice());\n        data.whole = pref1.toSlice().concat(data.third_.toSlice());    \n        return ecrecover(keccak256(data.whole), uint8(_v), _r, _s);\n    }\n}\n",
  "sourcePath": "/Users/liubowen/sutd/payment_channel_termination/code/contracts/imported/verify.sol",
  "compiler": {
    "name": "solc",
    "version": "0.4.25+commit.59dbf8f1.Emscripten.clang"
  },
  "schemaVersion": "2.0.2",
  "updatedAt": "2019-06-03T10:38:56.395Z"
}